S01B000054656D706B6F72745F70726F6772616D5F76312E7372656356
S113000045C0000053C0000051C000004FC00000B4
S11300104DC000004BC0000049C0000047C00000B4
S113002045C0000043C0000041C000003FC00000C4
S11300303DC000003BC0000039C0000037C00000D4
S113004035C0000033C0000031C000002FC00000E4
S113005088C00000B8C0000029C0000027C000000C
S113006025C0000023C0000021C000001FC0000004
S1130070D8C0000008C1000019C0000017C000006B
S113008015C0000013C0000011C0000011241FBEE1
S1130090CFEFD0E4DEBFCDBF21E0A0E0B1E001C0EE
S11300A01D92AA38B207E1F732D096C1A9CF84B124
S11300B0806B84B9269880E58CBD2C9A08952C9881
S11300C01EBC0DB407FEFDCF4EB51EBC0DB407FE1D
S11300D0FDCF6EB51EBC0DB407FEFDCF3EB51EBCF4
S11300E00DB407FEFDCF2EB52C9A862F90E0A0E02C
S11300F0B0E0942BBA2FA92F982F8827832BBA2FDF
S1130100A92F982F8827BC01CD01622B0895CF9386
S1130110DF93CDB7DEB7A0970FB6F894DEBF0FBE5E
S1130120CDBF8BE090E0DDD0C2DF7894C8DF052E30
S113013054E196958795779567955A95D1F7502D03
S11301402AE0AE014F5F5F4F08D1F9D08AE0E2D0D8
S11301508DE0E0D08FEF9BE60197F1F700C000003F
S1130160E5CF1F920F920FB60F9211240BB60F9288
S11301702F938F939F93EF93FF938091C0002091CF
S1130180C6008C71E0914701EF5FEF7190914601D9
S1130190E91739F0E0934701F0E0E65BFE4F208376
S11301A001C082E090914501892B80934501FF9124
S11301B0EF919F918F912F910F900BBE0F900FBED7
S11301C00F901F9018951F920F920FB60F92112443
S11301D00BB60F928F939F93EF93FF9390914901E6
S11301E080914801981769F0E0914801EF5FEF7141
S11301F0E0934801F0E0E659FE4F80818093C60009
S113020005C0E1ECF0E080818F7D8083FF91EF9168
S11302109F918F910F900BBE0F900FBE0F901F9068
S113022018951F920F920FB60F9211240BB60F92CE
S11302302F938F939F93EF93FF938091C800209106
S1130240CE008C71E0910201EF5FEF71909101019A
S1130250E91739F0E0930201F0E0EB5FFE4F2083F1
S113026001C082E090910001892B80930001FF91ED
S1130270EF919F918F912F910F900BBE0F900FBE16
S11302800F901F9018951F920F920FB60F92112482
S11302900BB60F928F939F93EF93FF93909104016A
S11302A080910301981769F0E0910301EF5FEF710A
S11302B0E0930301F0E0EB5DFE4F80818093CE007C
S11302C005C0E9ECF0E080818F7D8083FF91EF91A0
S11302D09F918F910F900BBE0F900FBE0F901F90A8
S11302E018951092040110920301109202011092C9
S11302F0010199231CF422E02093C8009078909384
S1130300CD008093CC0088E98093C90086E0809377
S1130310CA000895209104012F5F2F719091030169
S11303202917E1F3E22FF0E0EB5DFE4F8083209389
S11303300401E9ECF0E08081806280830895CF932A
S1130340DF93EC018881882329F02196E3DF8991EA
S11303508111FCCFDF91CF910895BB272A3051F44E
S1130360992342F4BDE290958095709561957F4FF5
S11303708F4F9F4F01C0BB27FA01A62F621771054B
S113038081059105330B30FB66F0AA27660F771FB2
S1130390881F991FAA1FA21710F0A21B639538503B
S11303A0A9F7A05DAA3308F0A95DA19336F7B111AE
S11303B0B1931082CA0100C0DC01FC01672F719166
S11303C07723E1F7329704C07C916D937083629137
S10F03D0AE17BF07C8F30895F894FFCFE0
S9030000FC
