:1000000033C0000041C000003FC000003DC0000000
:100010003BC0000039C0000037C0000035C0000000
:1000200033C0000031C000002FC000002DC0000010
:100030002BC0000029C0000027C0000025C0000020
:1000400023C0000021C00000FAC0000026C100004B
:100050001BC0000019C0000017C0000015C0000040
:1000600013C0000011C0000011241FBECFEFD8E064
:10007000DEBFCDBF21E0A0E0B1E001C01D92A534FC
:10008000B207E1F745D033C1BBCFFC0194B19C620C
:1000900094B924982A9ADB019C91942B9C9380819B
:1000A000482B408380E58CBD0895FC01862F20817C
:1000B000962F90959223908395E09A95F1F71EBC28
:1000C0000DB407FEFDCF4EB51EBC0DB407FEFDCF2F
:1000D0006EB51EBC0DB407FEFDCF3EB51EBC0DB403
:1000E00007FEFDCF2EB59081892B8083862F90E06F
:1000F000A0E0B0E0942BBA2FA92F982F8827832B4C
:10010000BA2FA92F982F8827BC01CD01622B089503
:10011000CF93DF93CDB7DEB72A970FB6F894DEBF43
:100120000FBECDBF2BD02FE986E891E02150804053
:100130009040E1F700C0000043E067E270E088E231
:1001400090E0A3DF12E461E088E290E0AEDF062FEA
:10015000F72EE82ED92E62E088E290E0A6DF198320
:100160001A83DB82EC82FD820E839F8388877987E6
:100170006A876AE0CE0101964AD0E5CF3D9845985E
:10018000219829988FEF8AB91BB80895482F41729A
:10019000282F2870220F220F220F242B982F9270C5
:1001A0009295990F990F907C292B982F9078492F31
:1001B00050E0559547955595479555954795242B6E
:1001C000982F9074692F70E0759567957595679570
:1001D00075956795262B982F9071492F50E055956E
:1001E000479555954795242B847090E09595879574
:1001F000282B86B193B192708072892BD1F32BB9E1
:1002000086B193B192708072892BD1F708950F93C4
:100210001F93CF93DF93662369F0EC016150062FA3
:1002200010E00F5F1F4F080F191F8991AFDFC01734
:10023000D107D9F7DF91CF911F910F9108951F92A8
:100240000F920FB60F9211242F938F939F93EF93DA
:10025000FF938091C0002091C6008C71E091020153
:10026000EF5FEF7190910101E91739F0E09302011E
:10027000F0E0EB5FFE4F208301C082E0909100012F
:10028000892B80930001FF91EF919F918F912F9186
:100290000F900FBE0F901F9018951F920F920FB6E0
:1002A0000F9211248F939F93EF93FF9390910401EA
:1002B00080910301981769F0E0910301EF5FEF71FE
:1002C000E0930301F0E0EB5DFE4F80818093C60078
:1002D00005C0E1ECF0E080818F7D8083FF91EF919C
:1002E0009F918F910F900FBE0F901F901895F894CB
:0202F000FFCF3E
:00000001FF
